:0400000007EF00F016
:100008004982D9ED06F033EF08F042D00A0E4724B2
:10001800476E000E4820486E47C013F048C014F0E1
:1000280045C015F046C016F043C017F044C018F09C
:1000380041C019F042C01AF03FC01BF040C01CF08C
:100048003DC01DF03EC01EF0000E206E000E1F6E5B
:100058002CEC07F047C013F048C014F045C015F069
:1000680046C016F043C017F044C018F041C019F05C
:1000780042C01AF03FC01BF040C01CF03DC01DF04C
:100088003EC01EF0000E206E010E1F6E2CEC07F015
:1000980048BEBCD748504DE1470E475CD8B049D060
:1000A800B5D70A0E4724476E000E4820486E0A0E40
:1000B8004124416E000E4220426E47C013F048C0F2
:1000C80014F045C015F046C016F043C017F044C000
:1000D80018F041C019F042C01AF03FC01BF040C0F0
:1000E8001CF03DC01DF03EC01EF0000E206E040E38
:1000F8001F6E2CEC07F047C013F048C014F045C041
:1001080015F046C016F043C017F044C018F041C0BF
:1001180019F042C01AF03FC01BF040C01CF03DC0AF
:100128001DF03EC01EF0000E206E050E1F6E2CEC5A
:1001380007F048BEB6D7485004E18D0E475CD8A0FA
:10014800B0D78A88030E236E980EE82EFED7232E8A
:10015800FCD78A98030E236E980EE82EFED7232E1E
:10016800FCD748D00A0E4524456E000E4620466E40
:100178000A0E4124416E000E4220426E47C013F021
:1001880048C014F045C015F046C016F043C017F03B
:1001980044C018F041C019F042C01AF03FC01BF02B
:1001A80040C01CF03DC01DF03EC01EF0000E206E89
:1001B800040E1F6E2CEC07F047C013F048C014F073
:1001C80045C015F046C016F043C017F044C018F0FB
:1001D80041C019F042C01AF03FC01BF040C01CF0EB
:1001E8003DC01DF03EC01EF0000E206E050E1F6EB5
:1001F8002CEC07F046BEB6D746504DE1470E455C9D
:10020800D8B049D0AFD70A0E4524456E000E462017
:10021800466E0A0E3F243F6E000E4020406E47C0D7
:1002280013F048C014F045C015F046C016F043C09E
:1002380017F044C018F041C019F042C01AF03FC08E
:100248001BF040C01CF03DC01DF03EC01EF0000E6B
:10025800206E040E1F6E2CEC07F047C013F048C048
:1002680014F045C015F046C016F043C017F044C05E
:1002780018F041C019F042C01AF03FC01BF040C04E
:100288001CF03DC01DF03EC01EF0000E206E050E95
:100298001F6E2CEC07F046BEB6D746504DE18D0ECA
:1002A800455CD8B049D0AFD7F60E4724476EFF0E4D
:1002B8004820486E0A0E3F243F6E000E4020406ED4
:1002C80047C013F048C014F045C015F046C016F0FA
:1002D80043C017F044C018F041C019F042C01AF0EA
:1002E8003FC01BF040C01CF03DC01DF03EC01EF0DA
:1002F800000E206E040E1F6E2CEC07F047C013F0A2
:1003080048C014F045C015F046C016F043C017F0B9
:1003180044C018F041C019F042C01AF03FC01BF0A9
:1003280040C01CF03DC01DF03EC01EF0000E206E07
:10033800050E1F6E2CEC07F048BE4FD04850B4E1B4
:10034800460E475CD8A049D0AFD7F60E4724476E73
:10035800FF0E4820486EF60E4124416EFF0E4220E3
:10036800426E47C013F048C014F045C015F046C0AF
:1003780016F043C017F044C018F041C019F042C04D
:100388001AF03FC01BF040C01CF03DC01DF03EC03D
:100398001EF0000E206E040E1F6E2CEC07F047C0F6
:1003A80013F048C014F045C015F046C016F043C01D
:1003B80017F044C018F041C019F042C01AF03FC00D
:1003C8001BF040C01CF03DC01DF03EC01EF0000EEA
:1003D800206E050E1F6E2CEC07F048BE49D0B5D72D
:1003E8000A0E4324436E000E4420446EF60E412448
:1003F800416EFF0E4220426E47C013F048C014F011
:1004080045C015F046C016F043C017F044C018F0B8
:1004180041C019F042C01AF03FC01BF040C01CF0A8
:100428003DC01DF03EC01EF0000E206E040E1F6E73
:100438002CEC07F047C013F048C014F045C015F085
:1004480046C016F043C017F044C018F041C019F078
:1004580042C01AF03FC01BF040C01CF03DC01DF068
:100468003EC01EF0000E206E050E1F6E2CEC07F02D
:1004780044BEB6D744504DE1470E435CD8B049D08E
:10048800AFD70A0E4324436E000E4420446E0A0E72
:100498003D243D6E000E3E203E6E47C013F048C01E
:1004A80014F045C015F046C016F043C017F044C01C
:1004B80018F041C019F042C01AF03FC01BF040C00C
:1004C8001CF03DC01DF03EC01EF0000E206E040E54
:1004D8001F6E2CEC07F047C013F048C014F045C05D
:1004E80015F046C016F043C017F044C018F041C0DC
:1004F80019F042C01AF03FC01BF040C01CF03DC0CC
:100508001DF03EC01EF0000E206E050E1F6E2CEC76
:1005180007F044BEB6D744504DE18D0E435CD8B0C9
:1005280049D0AFD70A0E4724476E000E4820486EC0
:100538000A0E3D243D6E000E3E203E6E47C013F06D
:1005480048C014F045C015F046C016F043C017F077
:1005580044C018F041C019F042C01AF03FC01BF067
:1005680040C01CF03DC01DF03EC01EF0000E206EC5
:10057800040E1F6E2CEC07F047C013F048C014F0AF
:1005880045C015F046C016F043C017F044C018F037
:1005980041C019F042C01AF03FC01BF040C01CF027
:1005A8003DC01DF03EC01EF0000E206E050E1F6EF1
:1005B8002CEC07F048BEB6D748504DE1470E475CD3
:1005C800D8B049D0AFD70A0E4724476E000E48204E
:1005D800486E0A0E4124416E000E4220426E47C00A
:1005E80013F048C014F045C015F046C016F043C0DB
:1005F80017F044C018F041C019F042C01AF03FC0CB
:100608001BF040C01CF03DC01DF03EC01EF0000EA7
:10061800206E040E1F6E2CEC07F047C013F048C084
:1006280014F045C015F046C016F043C017F044C09A
:1006380018F041C019F042C01AF03FC01BF040C08A
:100648001CF03DC01DF03EC01EF0000E206E050ED1
:100658001F6E2CEC07F048BEB6D748504DE18D0E02
:10066800475CD8B049D0AFD7F60E4524456EFF0E8B
:100678004620466E0A0E4124416E000E4220426E0C
:1006880047C013F048C014F045C015F046C016F036
:1006980043C017F044C018F041C019F042C01AF026
:1006A8003FC01BF040C01CF03DC01DF03EC01EF016
:1006B800000E206E040E1F6E2CEC07F047C013F0DE
:1006C80048C014F045C015F046C016F043C017F0F6
:1006D80044C018F041C019F042C01AF03FC01BF0E6
:1006E80040C01CF03DC01DF03EC01EF0000E206E44
:1006F800050E1F6E2CEC07F046BE4FD04650B4E1F5
:10070800460E455CD8A049D0AFD7F60E4524456EB5
:10071800FF0E4620466EF60E3F243F6EFF0E402029
:10072800406E47C013F048C014F045C015F046C0ED
:1007380016F043C017F044C018F041C019F042C089
:100748001AF03FC01BF040C01CF03DC01DF03EC079
:100758001EF0000E206E040E1F6E2CEC07F047C032
:1007680013F048C014F045C015F046C016F043C059
:1007780017F044C018F041C019F042C01AF03FC049
:100788001BF040C01CF03DC01DF03EC01EF0000E26
:10079800206E050E1F6E2CEC07F046BE49D0B5D76B
:1007A800F60E4724476EFF0E4820486EF60E3F248B
:1007B8003F6EFF0E4020406E47C013F048C014F053
:1007C80045C015F046C016F043C017F044C018F0F5
:1007D80041C019F042C01AF03FC01BF040C01CF0E5
:1007E8003DC01DF03EC01EF0000E206E040E1F6EB0
:1007F8002CEC07F047C013F048C014F045C015F0C2
:1008080046C016F043C017F044C018F041C019F0B4
:1008180042C01AF03FC01BF040C01CF03DC01DF0A4
:100828003EC01EF0000E206E050E1F6E2CEC07F069
:1008380048BE4FD04850B4E1460E475CD8A049D0D6
:10084800AFD7F60E4724476EFF0E4820486EF60EC7
:100858004124416EFF0E4220426E47C013F048C04B
:1008680014F045C015F046C016F043C017F044C058
:1008780018F041C019F042C01AF03FC01BF040C048
:100888001CF03DC01DF03EC01EF0000E206E040E90
:100898001F6E2CEC07F047C013F048C014F045C099
:1008A80015F046C016F043C017F044C018F041C018
:1008B80019F042C01AF03FC01BF040C01CF03DC008
:1008C8001DF03EC01EF0000E206E050E1F6E2CECB3
:1008D80007F048BE49D0B5D7F60E4324436EFF0E45
:1008E8004420446EF60E4124416EFF0E4220426EB3
:1008F80047C013F048C014F045C015F046C016F0C4
:1009080043C017F044C018F041C019F042C01AF0B3
:100918003FC01BF040C01CF03DC01DF03EC01EF0A3
:10092800000E206E040E1F6E2CEC07F047C013F06B
:1009380048C014F045C015F046C016F043C017F083
:1009480044C018F041C019F042C01AF03FC01BF073
:1009580040C01CF03DC01DF03EC01EF0000E206ED1
:10096800050E1F6E2CEC07F044BE4FD04450B4E186
:10097800460E435CD8A049D0AFD7F60E4324436E49
:10098800FF0E4420446EF60E3D243D6EFF0E3E20C1
:100998003E6E47C013F048C014F045C015F046C07D
:1009A80016F043C017F044C018F041C019F042C017
:1009B8001AF03FC01BF040C01CF03DC01DF03EC007
:1009C8001EF0000E206E040E1F6E2CEC07F047C0C0
:1009D80013F048C014F045C015F046C016F043C0E7
:1009E80017F044C018F041C019F042C01AF03FC0D7
:1009F8001BF040C01CF03DC01DF03EC01EF0000EB4
:100A0800206E050E1F6E2CEC07F044BE49D0B5D7FA
:100A18008B808B828B848B868C808C82F60E3D2417
:100A28003D6EFF0E3E203E6E47C013F048C014F0E6
:100A380045C015F046C016F043C017F044C018F082
:100A480041C019F042C01AF03FC01BF040C01CF072
:100A58003DC01DF03EC01EF0000E206E020E1F6E3F
:100A68002CEC07F047C013F048C014F045C015F04F
:100A780046C016F043C017F044C018F041C019F042
:100A880042C01AF03FC01BF040C01CF03DC01DF032
:100A98003EC01EF0000E206E030E1F6E2CEC07F0F9
:100AA8003EAEB6D7D7EC07F0120007500810D8A40E
:100AB80034D08B908B928B948B868C808C82000E9A
:100AC8000A6E000E096E0ABE08D00A5005E18C0EA7
:100AD800095CD8B0120001D012000106D8A00206A5
:100AE800012803E10228D8B48B800306D8A00406A5
:100AF800032803E10428D8B48B820506D8A006068B
:100B0800052803E10628D8B48B84094A0A2A0ABEB4
:100B1800E4D70A5001E1DBD7120007040810D8A473
:100B280034D08B808B828B848B968C908C92000E29
:100B38000C6E000E0B6E0CBE08D00C5005E18C0E2E
:100B48000B5CD8B0120001D012000106D8A0020632
:100B5800012803E10228D8B48B860306D8A004062E
:100B6800032803E10428D8B48C800506D8A006061B
:100B7800052803E10628D8B48C820B4A0C2A0CBE3F
:100B8800E4D70C5001E1DBD71200020E0718081059
:100B9800D8A431D08B9E8B9C8B9A8B888C868C8426
:100BA800000E0E6E000E0D6E0EBE06D00E5055E1F4
:100BB8008C0E0D5CD8B012000106D8A002060128E0
:100BC80003E10228D8B48B8E0306D8A004060328B4
:100BD80003E10428D8B48B8C0506D8A0060605289E
:100BE80003E10628D8B48B8A0D4A0E2A0EBEE4D734
:100BF8000E5033E1DDD7030E07180810D8A41200F1
:100C08008B8E8B8C8B8A8B988C968C94000E106EA6
:100C1800000E0F6E10BE06D010501FE18C0E0F5C38
:100C2800D8B012000106D8A00206012803E1022864
:100C3800D8B48B880306D8A00406032803E1042847
:100C4800D8B48C860506D8A00606052803E1062830
:100C5800D8B48C840F4A102ADDD71200040E0D1860
:100C68000E10D8A451D08B908B928B948B868C804D
:100C78008C828B9E8B9C8B9A8B888C868C84000EA6
:100C8800106E000E0F6E10BE08D0105005E18C0ECD
:100C98000F5CD8B0120001D012000106D8A00206DD
:100CA800012803E10228D8B48B800306D8A00406E3
:100CB800032803E10428D8B48B820506D8A00606C9
:100CC800052803E10628D8B48B840706D8A00806AF
:100CD800072803E10828D8B48B8E0906D8A00A068D
:100CE800092803E10A28D8B48B8C0B06D8A00C0677
:100CF8000B2803E10C28D8B48B8A0F4A102A10BE9F
:100D0800CCD7105051E1C3D7050E0D180E10D8A43A
:100D180012008B808B828B848B968C908C928B8E1E
:100D28008B8C8B8A8B988C968C94000E126E000E8E
:100D3800116E12BE06D0125037E18C0E115CD8B07D
:100D480012000106D8A00206012803E10228D8B43F
:100D58008B860306D8A00406032803E10428D8B428
:100D68008C800506D8A00606052803E10628D8B415
:100D78008C820706D8A00806072803E10828D8B4FB
:100D88008B880906D8A00A06092803E10A28D8B4DE
:100D98008C860B06D8A00C060B2803E10C28D8B4C7
:100DA8008C84114A122AC5D712000600FACF24F003
:100DB800FBCF25F0E9CF26F0EACF27F0E1CF28F0E6
:100DC800E2CF29F0D9CF2AF0DACF2BF0F3CF2CF0ED
:100DD800F4CF2DF0F6CF2EF0F7CF2FF0F8CF30F07C
:100DE800F5CF31F049C032F04AC033F04BC034F08F
:100DF8004CC035F0F2A206D08C9809EC00F0819036
:100E08008A90F29235C04CF034C04BF033C04AF0AF
:100E180032C049F031C0F5FF30C0F8FF2FC0F7FFEE
:100E28002EC0F6FF2DC0F4FF2CC0F3FF2BC0DAFF55
:100E38002AC0D9FF29C0E2FF28C0E1FF27C0EAFF86
:100E480026C0E9FF25C0FBFF24C0FAFF4992110024
:100E5800000E226E3C0E216E20BE19D020503EE1BD
:100E6800040E1F5CD8A013D039D013C001F014C0F1
:100E780002F015C003F016C004F017C005F018C042
:100E880006F01FC007F020C008F059EC05F0210655
:100E9800D8A022062128E9E12228D8B41200E5D7F3
:100EA80013C001F014C002F015C003F016C004F01E
:100EB80017C005F018C006F019C007F01AC008F0EE
:100EC8001BC009F01CC00AF01DC00BF01EC00CF0BE
:100ED8001FC00DF020C00EF032EC06F02106D8A09D
:100EE80022062128DDE12228D8B41200D9D7D38CD4
:100EF800D38AD398000E946E000E956E010E8B6EF9
:100F0800010E8C6E9380000E486E000E476E000E28
:100F1800466E000E456E000E446E000E436E000EC7
:100F2800426E000E416E000E406E000E3F6E000EC7
:100F38003E6E000E3D6ED08EF28EF292F288F18CEB
:100F48008A9081909398938A8A9A000E3C6E000E3C
:100F58003B6E12007BEC07F0FCEC07F0000E000182
:100F6800836F0A0E826F000E856F846911D0000EA0
:100F7800856F846903D08407D8A0850785BF05D00D
:100F88008551F9E18405D8B0F6D78207D8A0830740
:100F980083BF05D08351EBE18205D8B0E8D781AA99
:100FA800DBD7F282D9D78B808B828B848B868C801F
:100FB8008C828B8E8B8C8B8A8B888C868C84000E93
:100FC800486E000E476E000E466E000E456E000E0F
:100FD800446E000E436E000E426E000E416E000E0F
:100FE800406E000E3F6E000E3E6E000E3D6E12000B
:100FF80008D03B4A3C2A3BC036F03CC037F019ECDD
:1010080008F0C80E3B183C10D8B40AD0F2D73B06FB
:10101800D8A03C063BC036F03CC037F019EC08F0CD
:101028003B503C10D8B41200F2D78C88000E000157
:10103800816F000E806F81BF06D081510FE1C80E0D
:10104800805DD8B012003606D8A03706362803E1EE
:101058003728D8B48C98804B812BEDD7120000EE3E
:1010680038F0110EEE6AE806FDE149904992000158
:04107800AEEF07F0E0
:020000040020DA
:08000000FFFFFFFFFFFFFFFF00
:020000040030CA
:0E000000FF081B1EFF8181FF0FC00FE00F40A5
:00000001FF
