:0400000007EF00F016
:100008004A82C6ED0DF0ADEF0FF044D00A0E0001A4
:10001800A225A26F000EA321A36FA2C084F0A3C0E3
:1000280085F0A0C086F0A1C087F09EC088F09FC070
:1000380089F09CC08AF09DC08BF09AC08CF09BC060
:100048008DF098C08EF099C08FF0000E916F000E61
:10005800906F19EC0EF0A2C084F0A3C085F0A0C088
:1000680086F0A1C087F09EC088F09FC089F09CC030
:100078008AF09DC08BF09AC08CF09BC08DF098C020
:100088008EF099C08FF0000E0001916F010E906FF5
:1000980019EC0EF00001A3BFB9D7A3514EE1470EEA
:1000A800A25DD8B04AD0B2D70A0EA225A26F000E20
:1000B800A321A36F0A0E9C259C6F000E9D219D6FA6
:1000C800A2C084F0A3C085F0A0C086F0A1C087F0CC
:1000D8009EC088F09FC089F09CC08AF09DC08BF0BC
:1000E8009AC08CF09BC08DF098C08EF099C08FF0AC
:1000F800000E916F040E906F19EC0EF0A2C084F000
:10010800A3C085F0A0C086F0A1C087F09EC088F08B
:100118009FC089F09CC08AF09DC08BF09AC08CF07B
:100128009BC08DF098C08EF099C08FF0000E000132
:10013800916F050E906F19EC0EF00001A3BFB4D7B4
:10014800A35104E18D0EA25DD8A0AED78A988A8803
:100158008A9849D00A0EA025A06F000EA121A16F90
:100168000A0E9C259C6F000E9D219D6FA2C084F0F5
:10017800A3C085F0A0C086F0A1C087F09EC088F01B
:100188009FC089F09CC08AF09DC08BF09AC08CF00B
:100198009BC08DF098C08EF099C08FF0000E916FC3
:1001A800040E906F19EC0EF0A2C084F0A3C085F085
:1001B800A0C086F0A1C087F09EC088F09FC089F0DB
:1001C8009CC08AF09DC08BF09AC08CF09BC08DF0CB
:1001D80098C08EF099C08FF0000E0001916F050E47
:1001E800906F19EC0EF00001A1BFB4D7A1514EE1F8
:1001F800470EA05DD8B04AD0ADD70A0EA025A06F93
:10020800000EA121A16F0A0E9A259A6F000E9B215C
:100218009B6FA2C084F0A3C085F0A0C086F0A1C0E7
:1002280087F09EC088F09FC089F09CC08AF09DC06E
:100238008BF09AC08CF09BC08DF098C08EF099C05E
:100248008FF0000E916F040E906F19EC0EF0A2C0A3
:1002580084F0A3C085F0A0C086F0A1C087F09EC03E
:1002680088F09FC089F09CC08AF09DC08BF09AC02E
:100278008CF09BC08DF098C08EF099C08FF0000E66
:100288000001916F050E906F19EC0EF00001A1BFEF
:10029800B4D7A1514EE18D0EA05DD8B04AD0ADD7EC
:1002A800F60EA225A26FFF0EA321A36F0A0E9A25B0
:1002B8009A6F000E9B219B6FA2C084F0A3C085F0AB
:1002C800A0C086F0A1C087F09EC088F09FC089F0CA
:1002D8009CC08AF09DC08BF09AC08CF09BC08DF0BA
:1002E80098C08EF099C08FF0000E916F040E906F39
:1002F80019EC0EF0A2C084F0A3C085F0A0C086F06F
:10030800A1C087F09EC088F09FC089F09CC08AF089
:100318009DC08BF09AC08CF09BC08DF098C08EF079
:1003280099C08FF0000E0001916F050E906F19ECC7
:100338000EF00001A3BF50D0A351B2E1460EA25D5A
:10034800D8A04AD0ADD7F60EA225A26FFF0EA321E2
:10035800A36FF60E9C259C6FFF0E9D219D6FA2C07A
:1003680084F0A3C085F0A0C086F0A1C087F09EC02D
:1003780088F09FC089F09CC08AF09DC08BF09AC01D
:100388008CF09BC08DF098C08EF099C08FF0000E55
:10039800916F040E906F19EC0EF0A2C084F0A3C008
:1003A80085F0A0C086F0A1C087F09EC088F09FC0ED
:1003B80089F09CC08AF09DC08BF09AC08CF09BC0DD
:1003C8008DF098C08EF099C08FF0000E0001916FEB
:1003D800050E906F19EC0EF00001A3BF4AD0B3D7F9
:1003E8000A0E9E259E6F000E9F219F6FF60E9C257C
:1003F8009C6FFF0E9D219D6FA2C084F0A3C085F065
:10040800A0C086F0A1C087F09EC088F09FC089F088
:100418009CC08AF09DC08BF09AC08CF09BC08DF078
:1004280098C08EF099C08FF0000E916F040E906FF7
:1004380019EC0EF0A2C084F0A3C085F0A0C086F02D
:10044800A1C087F09EC088F09FC089F09CC08AF048
:100458009DC08BF09AC08CF09BC08DF098C08EF038
:1004680099C08FF0000E0001916F050E906F19EC86
:100478000EF000019FBFB4D79F514EE1470E9E5D1D
:10048800D8B04AD0ADD70A0E9E259E6F000E9F2188
:100498009F6F0A0E9825986F000E9921996FA2C038
:1004A80084F0A3C085F0A0C086F0A1C087F09EC0EC
:1004B80088F09FC089F09CC08AF09DC08BF09AC0DC
:1004C8008CF09BC08DF098C08EF099C08FF0000E14
:1004D800916F040E906F19EC0EF0A2C084F0A3C0C7
:1004E80085F0A0C086F0A1C087F09EC088F09FC0AC
:1004F80089F09CC08AF09DC08BF09AC08CF09BC09C
:100508008DF098C08EF099C08FF0000E0001916FA9
:10051800050E906F19EC0EF000019FBFB4D79F51E4
:100528004EE18D0E9E5DD8B04AD0ADD70A0EA225F9
:10053800A26F000EA321A36F0A0E9825986F000ED4
:100548009921996FA2C084F0A3C085F0A0C086F05D
:10055800A1C087F09EC088F09FC089F09CC08AF037
:100568009DC08BF09AC08CF09BC08DF098C08EF027
:1005780099C08FF0000E916F040E906F19EC0EF079
:10058800A2C084F0A3C085F0A0C086F0A1C087F007
:100598009EC088F09FC089F09CC08AF09DC08BF0F7
:1005A8009AC08CF09BC08DF098C08EF099C08FF0E7
:1005B800000E0001916F050E906F19EC0EF000010E
:1005C800A3BFB4D7A3514EE1470EA25DD8B04AD01D
:1005D800ADD70A0EA225A26F000EA321A36F0A0EA3
:1005E8009C259C6F000E9D219D6FA2C084F0A3C026
:1005F80085F0A0C086F0A1C087F09EC088F09FC09B
:1006080089F09CC08AF09DC08BF09AC08CF09BC08A
:100618008DF098C08EF099C08FF0000E916F040E87
:10062800906F19EC0EF0A2C084F0A3C085F0A0C0B2
:1006380086F0A1C087F09EC088F09FC089F09CC05A
:100648008AF09DC08BF09AC08CF09BC08DF098C04A
:100658008EF099C08FF0000E0001916F050E906F1B
:1006680019EC0EF00001A3BFB4D7A3514EE18D0ED3
:10067800A25DD8B04AD0ADD7F60EA025A06FFF0E68
:10068800A121A16F0A0E9C259C6F000E9D219D6FD4
:10069800A2C084F0A3C085F0A0C086F0A1C087F0F6
:1006A8009EC088F09FC089F09CC08AF09DC08BF0E6
:1006B8009AC08CF09BC08DF098C08EF099C08FF0D6
:1006C800000E916F040E906F19EC0EF0A2C084F02A
:1006D800A3C085F0A0C086F0A1C087F09EC088F0B6
:1006E8009FC089F09CC08AF09DC08BF09AC08CF0A6
:1006F8009BC08DF098C08EF099C08FF0000E00015D
:10070800916F050E906F19EC0EF00001A1BF50D04B
:10071800A151B2E1460EA05DD8A04AD0ADD7F60EE1
:10072800A025A06FFF0EA121A16FF60E9A259A6F42
:10073800FF0E9B219B6FA2C084F0A3C085F0A0C0D0
:1007480086F0A1C087F09EC088F09FC089F09CC049
:100758008AF09DC08BF09AC08CF09BC08DF098C039
:100768008EF099C08FF0000E916F040E906F19EC07
:100778000EF0A2C084F0A3C085F0A0C086F0A1C08E
:1007880087F09EC088F09FC089F09CC08AF09DC009
:100798008BF09AC08CF09BC08DF098C08EF099C0F9
:1007A8008FF0000E0001916F050E906F19EC0EF09E
:1007B8000001A1BF4AD0B3D7F60EA225A26FFF0E43
:1007C800A321A36FF60E9A259A6FFF0E9B219B6FAC
:1007D800A2C084F0A3C085F0A0C086F0A1C087F0B5
:1007E8009EC088F09FC089F09CC08AF09DC08BF0A5
:1007F8009AC08CF09BC08DF098C08EF099C08FF095
:10080800000E916F040E906F19EC0EF0A2C084F0E8
:10081800A3C085F0A0C086F0A1C087F09EC088F074
:100828009FC089F09CC08AF09DC08BF09AC08CF064
:100838009BC08DF098C08EF099C08FF0000E00011B
:10084800916F050E906F19EC0EF00001A3BF50D008
:10085800A351B2E1460EA25DD8A04AD0ADD7F60E9C
:10086800A225A26FFF0EA321A36FF60E9C259C6FF5
:10087800FF0E9D219D6FA2C084F0A3C085F0A0C08B
:1008880086F0A1C087F09EC088F09FC089F09CC008
:100898008AF09DC08BF09AC08CF09BC08DF098C0F8
:1008A8008EF099C08FF0000E916F040E906F19ECC6
:1008B8000EF0A2C084F0A3C085F0A0C086F0A1C04D
:1008C80087F09EC088F09FC089F09CC08AF09DC0C8
:1008D8008BF09AC08CF09BC08DF098C08EF099C0B8
:1008E8008FF0000E0001916F050E906F19EC0EF05D
:1008F8000001A3BF4AD0B3D7F60E9E259E6FFF0E08
:100908009F219F6FF60E9C259C6FFF0E9D219D6F6A
:10091800A2C084F0A3C085F0A0C086F0A1C087F073
:100928009EC088F09FC089F09CC08AF09DC08BF063
:100938009AC08CF09BC08DF098C08EF099C08FF053
:10094800000E916F040E906F19EC0EF0A2C084F0A7
:10095800A3C085F0A0C086F0A1C087F09EC088F033
:100968009FC089F09CC08AF09DC08BF09AC08CF023
:100978009BC08DF098C08EF099C08FF0000E0001DA
:10098800916F050E906F19EC0EF000019FBF50D0CB
:100998009F51B2E1460E9E5DD8A04AD0ADD7F60E63
:1009A8009E259E6FFF0E9F219F6FF60E9825986FCC
:1009B800FF0E9921996FA2C084F0A3C085F0A0C052
:1009C80086F0A1C087F09EC088F09FC089F09CC0C7
:1009D8008AF09DC08BF09AC08CF09BC08DF098C0B7
:1009E8008EF099C08FF0000E916F040E906F19EC85
:1009F8000EF0A2C084F0A3C085F0A0C086F0A1C00C
:100A080087F09EC088F09FC089F09CC08AF09DC086
:100A18008BF09AC08CF09BC08DF098C08EF099C076
:100A28008FF0000E0001916F050E906F19EC0EF01B
:100A380000019FBF4AD0B3D78B808B828B848B8673
:100A48008C808C82F60E9825986FFF0E9921996FED
:100A5800A2C084F0A3C085F0A0C086F0A1C087F032
:100A68009EC088F09FC089F09CC08AF09DC08BF022
:100A78009AC08CF09BC08DF098C08EF099C08FF012
:100A8800000E916F020E906F19EC0EF0A2C084F068
:100A9800A3C085F0A0C086F0A1C087F09EC088F0F2
:100AA8009FC089F09CC08AF09DC08BF09AC08CF0E2
:100AB8009BC08DF098C08EF099C08FF0000E000199
:100AC800916F030E906F19EC0EF0000199AFB4D737
:100AD8002BEC0FF0120043D00A0E0001A225A26FE2
:100AE800000EA321A36FA2C013F0A3C014F0A0C0EE
:100AF80015F0A1C016F09EC017F09FC018F09CC05A
:100B080019F09DC01AF09AC01BF09BC01CF098C049
:100B18001DF099C01EF0000E206E000E1F6E6BECCB
:100B28000EF0A2C013F0A3C014F0A0C015F0A1C02D
:100B380016F09EC017F09FC018F09CC019F09DC019
:100B48001AF09AC01BF09BC01CF098C01DF099C009
:100B58001EF0000E206E010E1F6E6BEC0EF00001F1
:100B6800A3BFBAD7A3514DE1470EA25DD8B049D073
:100B7800B3D70A0EA225A26F000EA321A36F0A0EF7
:100B88009C259C6F000E9D219D6FA2C013F0A3C0F1
:100B980014F0A0C015F0A1C016F09EC017F09FC0B9
:100BA80018F09CC019F09DC01AF09AC01BF09BC0A9
:100BB8001CF098C01DF099C01EF0000E206E040EA7
:100BC8001F6E6BEC0EF0A2C013F0A3C014F0A0C00F
:100BD80015F0A1C016F09EC017F09FC018F09CC079
:100BE80019F09DC01AF09AC01BF09BC01CF098C069
:100BF8001DF099C01EF0000E206E050E1F6E6BECE6
:100C08000EF00001A3BFB5D7A35104E18D0EA25D7C
:100C1800D8A0AFD78A988A888A9848D00A0EA02583
:100C2800A06F000EA121A16F0A0E9C259C6F000EDB
:100C38009D219D6FA2C013F0A3C014F0A0C015F0B1
:100C4800A1C016F09EC017F09FC018F09CC019F004
:100C58009DC01AF09AC01BF09BC01CF098C01DF0F4
:100C680099C01EF0000E206E040E1F6E6BEC0EF085
:100C7800A2C013F0A3C014F0A0C015F0A1C016F0D4
:100C88009EC017F09FC018F09CC019F09DC01AF0C4
:100C98009AC01BF09BC01CF098C01DF099C01EF0B4
:100CA800000E206E050E1F6E6BEC0EF00001A1BF4A
:100CB800B5D7A1514DE1470EA05DD8B049D0AED708
:100CC8000A0EA025A06F000EA121A16F0A0E9A2579
:100CD8009A6F000E9B219B6FA2C013F0A3C014F063
:100CE800A0C015F0A1C016F09EC017F09FC018F064
:100CF8009CC019F09DC01AF09AC01BF09BC01CF054
:100D080098C01DF099C01EF0000E206E040E1F6ED4
:100D18006BEC0EF0A2C013F0A3C014F0A0C015F045
:100D2800A1C016F09EC017F09FC018F09CC019F023
:100D38009DC01AF09AC01BF09BC01CF098C01DF013
:100D480099C01EF0000E206E050E1F6E6BEC0EF0A3
:100D58000001A1BFB5D7A1514DE18D0EA05DD8B05E
:100D680049D0AED7F60EA225A26FFF0EA321A36F1E
:100D78000A0E9A259A6F000E9B219B6FA2C013F052
:100D8800A3C014F0A0C015F0A1C016F09EC017F0C3
:100D98009FC018F09CC019F09DC01AF09AC01BF0B3
:100DA8009BC01CF098C01DF099C01EF0000E206E6C
:100DB800040E1F6E6BEC0EF0A2C013F0A3C014F06B
:100DC800A0C015F0A1C016F09EC017F09FC018F083
:100DD8009CC019F09DC01AF09AC01BF09BC01CF073
:100DE80098C01DF099C01EF0000E206E050E1F6EF3
:100DF8006BEC0EF00001A3BF4FD0A351B3E1460E38
:100E0800A25DD8A049D0AED7F60EA225A26FFF0EDC
:100E1800A321A36FF60E9C259C6FFF0E9D219D6F4D
:100E2800A2C013F0A3C014F0A0C015F0A1C016F022
:100E38009EC017F09FC018F09CC019F09DC01AF012
:100E48009AC01BF09BC01CF098C01DF099C01EF002
:100E5800000E206E040E1F6E6BEC0EF0A2C013F095
:100E6800A3C014F0A0C015F0A1C016F09EC017F0E2
:100E78009FC018F09CC019F09DC01AF09AC01BF0D2
:100E88009BC01CF098C01DF099C01EF0000E206E8B
:100E9800050E1F6E6BEC0EF00001A3BF49D0B4D74E
:100EA8000A0E9E259E6F000E9F219F6FF60E9C25B1
:100EB8009C6FFF0E9D219D6FA2C013F0A3C014F07C
:100EC800A0C015F0A1C016F09EC017F09FC018F082
:100ED8009CC019F09DC01AF09AC01BF09BC01CF072
:100EE80098C01DF099C01EF0000E206E040E1F6EF3
:100EF8006BEC0EF0A2C013F0A3C014F0A0C015F064
:100F0800A1C016F09EC017F09FC018F09CC019F041
:100F18009DC01AF09AC01BF09BC01CF098C01DF031
:100F280099C01EF0000E206E050E1F6E6BEC0EF0C1
:100F380000019FBFB5D79F514DE1470E9E5DD8B0C8
:100F480049D0AED70A0E9E259E6F000E9F219F6F37
:100F58000A0E9825986F000E9921996FA2C013F078
:100F6800A3C014F0A0C015F0A1C016F09EC017F0E1
:100F78009FC018F09CC019F09DC01AF09AC01BF0D1
:100F88009BC01CF098C01DF099C01EF0000E206E8A
:100F9800040E1F6E6BEC0EF0A2C013F0A3C014F089
:100FA800A0C015F0A1C016F09EC017F09FC018F0A1
:100FB8009CC019F09DC01AF09AC01BF09BC01CF091
:100FC80098C01DF099C01EF0000E206E050E1F6E11
:100FD8006BEC0EF000019FBFB5D79F514DE18D0E10
:100FE8009E5DD8B049D0AED70A0EA225A26F000EDA
:100FF800A321A36F0A0E9825986F000E9921996F67
:10100800A2C013F0A3C014F0A0C015F0A1C016F040
:101018009EC017F09FC018F09CC019F09DC01AF030
:101028009AC01BF09BC01CF098C01DF099C01EF020
:10103800000E206E040E1F6E6BEC0EF0A2C013F0B3
:10104800A3C014F0A0C015F0A1C016F09EC017F000
:101058009FC018F09CC019F09DC01AF09AC01BF0F0
:101068009BC01CF098C01DF099C01EF0000E206EA9
:10107800050E1F6E6BEC0EF00001A3BFB5D7A35190
:101088004DE1470EA25DD8B049D0AED70A0EA225D1
:10109800A26F000EA321A36F0A0E9C259C6F000E61
:1010A8009D219D6FA2C013F0A3C014F0A0C015F03D
:1010B800A1C016F09EC017F09FC018F09CC019F090
:1010C8009DC01AF09AC01BF09BC01CF098C01DF080
:1010D80099C01EF0000E206E040E1F6E6BEC0EF011
:1010E800A2C013F0A3C014F0A0C015F0A1C016F060
:1010F8009EC017F09FC018F09CC019F09DC01AF050
:101108009AC01BF09BC01CF098C01DF099C01EF03F
:10111800000E206E050E1F6E6BEC0EF00001A3BFD3
:10112800B5D7A3514DE18D0EA25DD8B049D0AED749
:10113800F60EA025A06FFF0EA121A16F0A0E9C2517
:101148009C6F000E9D219D6FA2C013F0A3C014F0E8
:10115800A0C015F0A1C016F09EC017F09FC018F0EF
:101168009CC019F09DC01AF09AC01BF09BC01CF0DF
:1011780098C01DF099C01EF0000E206E040E1F6E60
:101188006BEC0EF0A2C013F0A3C014F0A0C015F0D1
:10119800A1C016F09EC017F09FC018F09CC019F0AF
:1011A8009DC01AF09AC01BF09BC01CF098C01DF09F
:1011B80099C01EF0000E206E050E1F6E6BEC0EF02F
:1011C8000001A1BF4FD0A151B3E1460EA05DD8A048
:1011D80049D0AED7F60EA025A06FFF0EA121A16FB2
:1011E800F60E9A259A6FFF0E9B219B6FA2C013F0F3
:1011F800A3C014F0A0C015F0A1C016F09EC017F04F
:101208009FC018F09CC019F09DC01AF09AC01BF03E
:101218009BC01CF098C01DF099C01EF0000E206EF7
:10122800040E1F6E6BEC0EF0A2C013F0A3C014F0F6
:10123800A0C015F0A1C016F09EC017F09FC018F00E
:101248009CC019F09DC01AF09AC01BF09BC01CF0FE
:1012580098C01DF099C01EF0000E206E050E1F6E7E
:101268006BEC0EF00001A1BF49D0B4D7F60EA22551
:10127800A26FFF0EA321A36FF60E9A259A6FFF0E99
:101288009B219B6FA2C013F0A3C014F0A0C015F05F
:10129800A1C016F09EC017F09FC018F09CC019F0AE
:1012A8009DC01AF09AC01BF09BC01CF098C01DF09E
:1012B80099C01EF0000E206E040E1F6E6BEC0EF02F
:1012C800A2C013F0A3C014F0A0C015F0A1C016F07E
:1012D8009EC017F09FC018F09CC019F09DC01AF06E
:1012E8009AC01BF09BC01CF098C01DF099C01EF05E
:1012F800000E206E050E1F6E6BEC0EF00001A3BFF2
:101308004FD0A351B3E1460EA25DD8A049D0AED7C5
:10131800F60EA225A26FFF0EA321A36FF60E9C2541
:101328009C6FFF0E9D219D6FA2C013F0A3C014F007
:10133800A0C015F0A1C016F09EC017F09FC018F00D
:101348009CC019F09DC01AF09AC01BF09BC01CF0FD
:1013580098C01DF099C01EF0000E206E040E1F6E7E
:101368006BEC0EF0A2C013F0A3C014F0A0C015F0EF
:10137800A1C016F09EC017F09FC018F09CC019F0CD
:101388009DC01AF09AC01BF09BC01CF098C01DF0BD
:1013980099C01EF0000E206E050E1F6E6BEC0EF04D
:1013A8000001A3BF49D0B4D7F60E9E259E6FFF0E4D
:1013B8009F219F6FF60E9C259C6FFF0E9D219D6FB0
:1013C800A2C013F0A3C014F0A0C015F0A1C016F07D
:1013D8009EC017F09FC018F09CC019F09DC01AF06D
:1013E8009AC01BF09BC01CF098C01DF099C01EF05D
:1013F800000E206E040E1F6E6BEC0EF0A2C013F0F0
:10140800A3C014F0A0C015F0A1C016F09EC017F03C
:101418009FC018F09CC019F09DC01AF09AC01BF02C
:101428009BC01CF098C01DF099C01EF0000E206EE5
:10143800050E1F6E6BEC0EF000019FBF4FD09F5141
:10144800B3E1460E9E5DD8A049D0AED7F60E9E25D4
:101458009E6FFF0E9F219F6FF60E9825986FFF0EC7
:101468009921996FA2C013F0A3C014F0A0C015F081
:10147800A1C016F09EC017F09FC018F09CC019F0CC
:101488009DC01AF09AC01BF09BC01CF098C01DF0BC
:1014980099C01EF0000E206E040E1F6E6BEC0EF04D
:1014A800A2C013F0A3C014F0A0C015F0A1C016F09C
:1014B8009EC017F09FC018F09CC019F09DC01AF08C
:1014C8009AC01BF09BC01CF098C01DF099C01EF07C
:1014D800000E206E050E1F6E6BEC0EF000019FBF14
:1014E80049D0B4D78B808B828B848B868C808C82FE
:1014F800F60E9825986FFF0E9921996FA2C013F0E8
:10150800A3C014F0A0C015F0A1C016F09EC017F03B
:101518009FC018F09CC019F09DC01AF09AC01BF02B
:101528009BC01CF098C01DF099C01EF0000E206EE4
:10153800020E1F6E6BEC0EF0A2C013F0A3C014F0E5
:10154800A0C015F0A1C016F09EC017F09FC018F0FB
:101558009CC019F09DC01AF09AC01BF09BC01CF0EB
:1015680098C01DF099C01EF0000E206E030E1F6E6D
:101578006BEC0EF0000199AFB5D751EC0FF01200EB
:101588003B503C10D8A434D08B908B928B948B8694
:101598008C808C82000E3E6E000E3D6E3EBE08D0E2
:1015A8003E5005E18C0E3D5CD8B0120001D012000F
:1015B8003506D8A03606352803E13628D8B48B80FE
:1015C8003706D8A03806372803E13828D8B48B82E4
:1015D8003906D8A03A06392803E13A28D8B48B84CA
:1015E8003D4A3E2A3EBEE4D73E5001E1DBD7120019
:1015F8003B043C10D8A434D08B808B828B848B9690
:101608008C908C92000E406E000E3F6E40BE08D04B
:10161800405005E18C0E3F5CD8B0120001D012009A
:101628003506D8A03606352803E13628D8B48B8687
:101638003706D8A03806372803E13828D8B48C8074
:101648003906D8A03A06392803E13A28D8B48C825A
:101658003F4A402A40BEE4D7405001E1DBD71200A0
:10166800020E3B183C10D8A431D08B9E8B9C8B9AD1
:101678008B888C868C84000E426E000E416E42BEB2
:1016880006D0425055E18C0E415CD8B012003506A8
:10169800D8A03606352803E13628D8B48B8E37060D
:1016A800D8A03806372803E13828D8B48B8C3906F7
:1016B800D8A03A06392803E13A28D8B48B8A414A97
:1016C800422A42BEE4D7425033E1DDD7030E3B182D
:1016D8003C10D8A412008B8E8B8C8B8A8B988C969E
:1016E8008C94000E446E000E436E44BE06D04450E7
:1016F8001FE18C0E435CD8B012003506D8A0360620
:10170800352803E13628D8B48B883706D8A03806A0
:10171800372803E13828D8B48C863906D8A03A0689
:10172800392803E13A28D8B48C84434A442ADDD7BF
:10173800120007500810D8A434D08B908B928B9449
:101748008B868C808C82000E0A6E000E096E0ABE93
:1017580008D00A5005E18C0E095CD8B0120001D0FF
:1017680012000106D8A00206012803E10228D8B415
:101778008B800306D8A00406032803E10428D8B404
:101788008B820506D8A00606052803E10628D8B4EA
:101798008B84094A0A2A0ABEE4D70A5001E1DBD73A
:1017A800120007040810D8A434D08B808B828B8455
:1017B8008B968C908C92000E0C6E000E0B6E0CBEED
:1017C80008D00C5005E18C0E0B5CD8B0120001D08B
:1017D80012000106D8A00206012803E10228D8B4A5
:1017E8008B860306D8A00406032803E10428D8B48E
:1017F8008C800506D8A00606052803E10628D8B47B
:101808008C820B4A0C2A0CBEE4D70C5001E1DBD7C2
:101818001200020E07180810D8A431D08B9E8B9C9A
:101828008B9A8B888C868C84000E0E6E000E0D6E43
:101838000EBE06D00E5055E18C0E0D5CD8B01200CD
:101848000106D8A00206012803E10228D8B48B8E2D
:101858000306D8A00406032803E10428D8B48B8C17
:101868000506D8A00606052803E10628D8B48B8A01
:101878000D4A0E2A0EBEE4D70E5033E1DDD7030E13
:1018880007180810D8A412008B8E8B8C8B8A8B9823
:101898008C968C94000E106E000E0F6E10BE06D043
:1018A80010501FE18C0E0F5CD8B012000106D8A0B2
:1018B8000206012803E10228D8B48B880306D8A0C1
:1018C8000406032803E10428D8B48C860506D8A0AA
:1018D8000606052803E10628D8B48C840F4A102A86
:1018E800DDD71200040E41184210D8A452D08B90B4
:1018F8008B928B948B868C808C828B9E8B9C8B9A04
:101908008B888C868C84000E0001816F000E806F9E
:1019180081BF08D0815105E18C0E805DD8B01200DE
:1019280001D012003506D8A03606352803E136283E
:10193800D8B48B803706D8A03806372803E1382872
:10194800D8B48B823906D8A03A06392803E13A2858
:10195800D8B48B843B06D8A03C063B2803E13C283E
:10196800D8B48B8E3D06D8A03E063D2803E13E281C
:10197800D8B48B8C3F06D8A040063F2803E1402806
:10198800D8B48B8A804B812B81BFCCD7815152E14F
:10199800C3D7050E41184210D8A412008B808B8241
:1019A8008B848B968C908C928B8E8B8C8B8A8B985D
:1019B8008C968C94000E0001836F000E826F83BF9B
:1019C80006D0835137E18C0E825DD8B012003506FF
:1019D800D8A03606352803E13628D8B48B863706D2
:1019E800D8A03806372803E13828D8B48C803906BF
:1019F800D8A03A06392803E13A28D8B48C823B06A5
:101A0800D8A03C063B2803E13C28D8B48B883D0687
:101A1800D8A03E063D2803E13E28D8B48C863F0670
:101A2800D8A040063F2803E14028D8B48C84824BD4
:101A3800832BC5D71200040E0D180E10D8A451D050
:101A48008B908B928B948B868C808C828B9E8B9CBC
:101A58008B9A8B888C868C84000E106E000E0F6E0D
:101A680010BE08D0105005E18C0E0F5CD8B01200E3
:101A780001D012000106D8A00206012803E10228BD
:101A8800D8B48B800306D8A00406032803E10428F1
:101A9800D8B48B820506D8A00606052803E10628D7
:101AA800D8B48B840706D8A00806072803E10828BD
:101AB800D8B48B8E0906D8A00A06092803E10A289B
:101AC800D8B48B8C0B06D8A00C060B2803E10C2885
:101AD800D8B48B8A0F4A102A10BECCD7105051E1C7
:101AE800C3D7050E0D180E10D8A412008B808B8258
:101AF8008B848B968C908C928B8E8B8C8B8A8B980C
:101B08008C968C94000E126E000E116E12BE06D0CA
:101B1800125037E18C0E115CD8B012000106D8A023
:101B28000206012803E10228D8B48B860306D8A050
:101B38000406032803E10428D8B48C800506D8A03D
:101B48000606052803E10628D8B48C820706D8A023
:101B58000806072803E10828D8B48B880906D8A006
:101B68000A06092803E10A28D8B48C860B06D8A0EF
:101B78000C060B2803E10C28D8B48C84114A122ACD
:101B8800C5D712000600FACF23F0FBCF24F0E9CF27
:101B980025F0EACF26F0E1CF27F0E2CF28F0D9CF21
:101BA80029F0DACF2AF0F3CF2BF0F4CF2CF0F6CFD0
:101BB8002DF0F7CF2EF0F8CF2FF0F5CF30F04AC048
:101BC80031F04BC032F04CC033F04DC034F0F2A2CB
:101BD80006D08C986FEC05F081908A90F29234C010
:101BE8004DF033C04CF032C04BF031C04AF030C039
:101BF800F5FF2FC0F8FF2EC0F7FF2DC0F6FF2CC051
:101C0800F4FF2BC0F3FF2AC0DAFF29C0D9FF28C090
:101C1800E2FF27C0E1FF26C0EAFF25C0E9FF24C094
:101C2800FBFF23C0FAFF4A921100000E0001936FD8
:101C38003C0E926F91BF19D091513FE1040E905D17
:101C4800D8A013D03AD084C035F085C036F086C00D
:101C580037F087C038F088C039F089C03AF090C0B2
:101C68003BF091C03CF0C4EC0AF000019207D8A008
:101C780093079229E8E19329D8B41200E4D784C0E5
:101C880035F085C036F086C037F087C038F088C098
:101C980039F089C03AF08AC03BF08BC03CF08CC068
:101CA8003DF08DC03EF08EC03FF08FC040F090C038
:101CB80041F091C042F076EC0CF000019207D8A0F8
:101CC80093079229DCE19329D8B41200D8D7000EE3
:101CD800226E3C0E216E20BE19D020503EE1040E2B
:101CE8001F5CD8A013D039D013C001F014C002F083
:101CF80015C003F016C004F017C005F018C006F0B0
:101D08001FC007F020C008F09DEC0BF02106D8A0FA
:101D180022062128E9E12228D8B41200E5D713C009
:101D280001F014C002F015C003F016C004F017C08B
:101D380005F018C006F019C007F01AC008F01BC05B
:101D480009F01CC00AF01DC00BF01EC00CF01FC02B
:101D58000DF020C00EF01FEC0DF02106D8A02206D1
:101D68002128DDE12228D8B41200D9D7F3EC0EF0EF
:101D780026D077EC0FF0000E0001956F0A0E946FD5
:101D8800000E976F966911D0000E976F966903D071
:101D98009607D8A0970797BF05D09751F9E1960500
:101DA800D8B0F6D79407D8A0950795BF05D0955118
:101DB800EBE19405D8B0E8D7A407D8A0A50700019F
:101DC800A5BF05D0A551D5E1A405D8B0D2D709EC57
:101DD80000F0000E0001A56F1E0EA46FF0D7D38C83
:101DE800D38AD398000E946E000E956E010E8B6EFA
:101DF800010E8C6E9380000E0001A36F000EA26F7F
:101E0800000EA16F000EA06F000E9F6F000E9E6F58
:101E1800000E9D6F000E9C6F000E9B6F000E9A6F58
:101E2800000E996F000E986FD08EF28EF292F288A3
:101E3800F18C8A9081909398938A8A9A000E496EC1
:101E4800000E486E000EA56F0A0EA46F12008B805C
:101E58008B828B848B868C808C828B8E8B8C8B8AEE
:101E68008B888C868C84000E0001A36F000EA26FF5
:101E7800000EA16F000EA06F000E9F6F000E9E6FE8
:101E8800000E9D6F000E9C6F000E9B6F000E9A6FE8
:101E9800000E996F000E986F12008B808B828B84D6
:101EA8008B868C808C828B8E8B8C8B8A8B888C8695
:101EB8008C84000E0001A36F000EA26F000EA16FAC
:101EC800000EA06F000E9F6F000E9E6F000E9D6F9C
:101ED800000E9C6F000E9B6F000E9A6F000E996F9C
:101EE800000E986F120008D0484A492A48C035F0B9
:101EF80049C036F094EC0FF0C80E48184910D8B411
:101F08000AD0F2D74806D8A0490648C035F049C0DB
:101F180036F094EC0FF048504910D8B41200F2D7BC
:101F28008C88000E386E000E376E38BE06D03850DA
:101F38000FE1C80E375CD8B012003506D8A03606B7
:101F4800352803E13628D8B48C98374A382AEDD793
:101F5800120000EE98F00C0EEE6AE806FDE1496A00
:101F6800486A476A466A456A4A904A920001BAEF47
:021F78000EF069
:020000040020DA
:08000000FFFFFFFFFFFFFFFF00
:020000040030CA
:0E000000FF081B1EFF8181FF0FC00FE00F40A5
:00000001FF
