:0400000007EF00F016
:100008004A82CCED06F025EF08F042D00A0E4824CB
:10001800486E000E4920496E48C013F049C014F0DC
:1000280046C015F047C016F044C017F045C018F098
:1000380042C019F043C01AF040C01BF041C01CF088
:100048003EC01DF03FC01EF0000E206E000E1F6E59
:100058001FEC07F048C013F049C014F046C015F073
:1000680047C016F044C017F045C018F042C019F058
:1000780043C01AF040C01BF041C01CF03EC01DF048
:100088003FC01EF0000E206E010E1F6E1FEC07F021
:1000980049BEBCD749504DE1470E485CD8B049D05D
:1000A800B5D70A0E4824486E000E4920496E0A0E3C
:1000B8004224426E000E4320436E48C013F049C0EC
:1000C80014F046C015F047C016F044C017F045C0FC
:1000D80018F042C019F043C01AF040C01BF041C0EC
:1000E8001CF03EC01DF03FC01EF0000E206E040E36
:1000F8001F6E1FEC07F048C013F049C014F046C04B
:1001080015F047C016F044C017F045C018F042C0BB
:1001180019F043C01AF040C01BF041C01CF03EC0AB
:100128001DF03FC01EF0000E206E050E1F6E1FEC66
:1001380007F049BEB6D7495004E18D0E485CD8A0F7
:10014800B0D78A988A888A9848D00A0E4624466E7C
:10015800000E4720476E0A0E4224426E000E4320CE
:10016800436E48C013F049C014F046C015F047C0AC
:1001780016F044C017F045C018F042C019F043C04B
:100188001AF040C01BF041C01CF03EC01DF03FC03B
:100198001EF0000E206E040E1F6E1FEC07F048C004
:1001A80013F049C014F046C015F047C016F044C01B
:1001B80017F045C018F042C019F043C01AF040C00B
:1001C8001BF041C01CF03EC01DF03FC01EF0000EE9
:1001D800206E050E1F6E1FEC07F047BEB6D74750BE
:1001E8004DE1470E465CD8B049D0AFD70A0E462439
:1001F800466E000E4720476E0A0E4024406E000EE1
:100208004120416E48C013F049C014F046C015F0B3
:1002180047C016F044C017F045C018F042C019F0A6
:1002280043C01AF040C01BF041C01CF03EC01DF096
:100238003FC01EF0000E206E040E1F6E1FEC07F06C
:1002480048C013F049C014F046C015F047C016F076
:1002580044C017F045C018F042C019F043C01AF066
:1002680040C01BF041C01CF03EC01DF03FC01EF056
:10027800000E206E050E1F6E1FEC07F047BEB6D7A6
:1002880047504DE18D0E465CD8B049D0AFD7F60E39
:100298004824486EFF0E4920496E0A0E4024406EDD
:1002A800000E4120416E48C013F049C014F046C00A
:1002B80015F047C016F044C017F045C018F042C00A
:1002C80019F043C01AF040C01BF041C01CF03EC0FA
:1002D8001DF03FC01EF0000E206E040E1F6E1FECB6
:1002E80007F048C013F049C014F046C015F047C0E5
:1002F80016F044C017F045C018F042C019F043C0CA
:100308001AF040C01BF041C01CF03EC01DF03FC0B9
:100318001EF0000E206E050E1F6E1FEC07F049BE82
:100328004FD04950B4E1460E485CD8A049D0AFD769
:10033800F60E4824486EFF0E4920496EF60E4224F8
:10034800426EFF0E4320436E48C013F049C014F0BC
:1003580046C015F047C016F044C017F045C018F065
:1003680042C019F043C01AF040C01BF041C01CF055
:100378003EC01DF03FC01EF0000E206E040E1F6E22
:100388001FEC07F048C013F049C014F046C015F040
:1003980047C016F044C017F045C018F042C019F025
:1003A80043C01AF040C01BF041C01CF03EC01DF015
:1003B8003FC01EF0000E206E050E1F6E1FEC07F0EA
:1003C80049BE49D0B5D70A0E4424446E000E4520D4
:1003D800456EF60E4224426EFF0E4320436E48C01F
:1003E80013F049C014F046C015F047C016F044C0D9
:1003F80017F045C018F042C019F043C01AF040C0C9
:100408001BF041C01CF03EC01DF03FC01EF0000EA6
:10041800206E040E1F6E1FEC07F048C013F049C091
:1004280014F046C015F047C016F044C017F045C098
:1004380018F042C019F043C01AF040C01BF041C088
:100448001CF03EC01DF03FC01EF0000E206E050ED1
:100458001F6E1FEC07F045BEB6D745504DE1470E5D
:10046800445CD8B049D0AFD70A0E4424446E000E7D
:100478004520456E0A0E3E243E6E000E3F203F6E1C
:1004880048C013F049C014F046C015F047C016F034
:1004980044C017F045C018F042C019F043C01AF024
:1004A80040C01BF041C01CF03EC01DF03FC01EF014
:1004B800000E206E040E1F6E1FEC07F048C013F0EC
:1004C80049C014F046C015F047C016F044C017F0F4
:1004D80045C018F042C019F043C01AF040C01BF0E4
:1004E80041C01CF03EC01DF03FC01EF0000E206E43
:1004F800050E1F6E1FEC07F045BEB6D745504DE1FF
:100508008D0E445CD8B049D0AFD70A0E4824486E47
:10051800000E4920496E0A0E3E243E6E000E3F2012
:100528003F6E48C013F049C014F046C015F047C0EC
:1005380016F044C017F045C018F042C019F043C087
:100548001AF040C01BF041C01CF03EC01DF03FC077
:100558001EF0000E206E040E1F6E1FEC07F048C040
:1005680013F049C014F046C015F047C016F044C057
:1005780017F045C018F042C019F043C01AF040C047
:100588001BF041C01CF03EC01DF03FC01EF0000E25
:10059800206E050E1F6E1FEC07F049BEB6D74950F6
:1005A8004DE1470E485CD8B049D0AFD70A0E482471
:1005B800486E000E4920496E0A0E4224426E000E13
:1005C8004320436E48C013F049C014F046C015F0EC
:1005D80047C016F044C017F045C018F042C019F0E3
:1005E80043C01AF040C01BF041C01CF03EC01DF0D3
:1005F8003FC01EF0000E206E040E1F6E1FEC07F0A9
:1006080048C013F049C014F046C015F047C016F0B2
:1006180044C017F045C018F042C019F043C01AF0A2
:1006280040C01BF041C01CF03EC01DF03FC01EF092
:10063800000E206E050E1F6E1FEC07F049BEB6D7E0
:1006480049504DE18D0E485CD8B049D0AFD7F60E71
:100658004624466EFF0E4720476E0A0E4224426E1D
:10066800000E4320436E48C013F049C014F046C042
:1006780015F047C016F044C017F045C018F042C046
:1006880019F043C01AF040C01BF041C01CF03EC036
:100698001DF03FC01EF0000E206E040E1F6E1FECF2
:1006A80007F048C013F049C014F046C015F047C021
:1006B80016F044C017F045C018F042C019F043C006
:1006C8001AF040C01BF041C01CF03EC01DF03FC0F6
:1006D8001EF0000E206E050E1F6E1FEC07F047BEC1
:1006E8004FD04750B4E1460E465CD8A049D0AFD7AA
:1006F800F60E4624466EFF0E4720476EF60E40243F
:10070800406EFF0E4120416E48C013F049C014F0FE
:1007180046C015F047C016F044C017F045C018F0A1
:1007280042C019F043C01AF040C01BF041C01CF091
:100738003EC01DF03FC01EF0000E206E040E1F6E5E
:100748001FEC07F048C013F049C014F046C015F07C
:1007580047C016F044C017F045C018F042C019F061
:1007680043C01AF040C01BF041C01CF03EC01DF051
:100778003FC01EF0000E206E050E1F6E1FEC07F026
:1007880047BE49D0B5D7F60E4824486EFF0E49201B
:10079800496EF60E4024406EFF0E4120416E48C05F
:1007A80013F049C014F046C015F047C016F044C015
:1007B80017F045C018F042C019F043C01AF040C005
:1007C8001BF041C01CF03EC01DF03FC01EF0000EE3
:1007D800206E040E1F6E1FEC07F048C013F049C0CE
:1007E80014F046C015F047C016F044C017F045C0D5
:1007F80018F042C019F043C01AF040C01BF041C0C5
:100808001CF03EC01DF03FC01EF0000E206E050E0D
:100818001F6E1FEC07F049BE4FD04950B4E1460E99
:10082800485CD8A049D0AFD7F60E4824486EFF0ED2
:100838004920496EF60E4224426EFF0E4320436E55
:1008480048C013F049C014F046C015F047C016F070
:1008580044C017F045C018F042C019F043C01AF060
:1008680040C01BF041C01CF03EC01DF03FC01EF050
:10087800000E206E040E1F6E1FEC07F048C013F028
:1008880049C014F046C015F047C016F044C017F030
:1008980045C018F042C019F043C01AF040C01BF020
:1008A80041C01CF03EC01DF03FC01EF0000E206E7F
:1008B800050E1F6E1FEC07F049BE49D0B5D7F60EDE
:1008C8004424446EFF0E4520456EF60E4224426EC7
:1008D800FF0E4320436E48C013F049C014F046C0D1
:1008E80015F047C016F044C017F045C018F042C0D4
:1008F80019F043C01AF040C01BF041C01CF03EC0C4
:100908001DF03FC01EF0000E206E040E1F6E1FEC7F
:1009180007F048C013F049C014F046C015F047C0AE
:1009280016F044C017F045C018F042C019F043C093
:100938001AF040C01BF041C01CF03EC01DF03FC083
:100948001EF0000E206E050E1F6E1FEC07F045BE50
:100958004FD04550B4E1460E445CD8A049D0AFD73B
:10096800F60E4424446EFF0E4520456EF60E3E24D6
:100978003E6EFF0E3F203F6E48C013F049C014F092
:1009880046C015F047C016F044C017F045C018F02F
:1009980042C019F043C01AF040C01BF041C01CF01F
:1009A8003EC01DF03FC01EF0000E206E040E1F6EEC
:1009B8001FEC07F048C013F049C014F046C015F00A
:1009C80047C016F044C017F045C018F042C019F0EF
:1009D80043C01AF040C01BF041C01CF03EC01DF0DF
:1009E8003FC01EF0000E206E050E1F6E1FEC07F0B4
:1009F80045BE49D0B5D78B908B928B948B968C90B3
:100A08008C92F60E3E243E6EFF0E3F203F6E48C08D
:100A180013F049C014F046C015F047C016F044C0A2
:100A280017F045C018F042C019F043C01AF040C092
:100A38001BF041C01CF03EC01DF03FC01EF0000E70
:100A4800206E020E1F6E1FEC07F048C013F049C05D
:100A580014F046C015F047C016F044C017F045C062
:100A680018F042C019F043C01AF040C01BF041C052
:100A78001CF03EC01DF03FC01EF0000E206E030E9D
:100A88001F6E1FEC07F03FAEB6D7CAEC07F0120096
:100A980007500810D8A434D08B808B828B848B9617
:100AA8008C908C92000E0A6E000E096E0ABE08D059
:100AB8000A5005E18C0E095CD8B0120001D0120072
:100AC8000106D8A00206012803E10228D8B48B90B9
:100AD8000306D8A00406032803E10428D8B48B929F
:100AE8000506D8A00606052803E10628D8B48B9485
:100AF800094A0A2A0ABEE4D70A5001E1DBD71200E4
:100B080007040810D8A434D08B908B928B948B86D2
:100B18008C808C82000E0C6E000E0B6E0CBE08D002
:100B28000C5005E18C0E0B5CD8B0120001D01200FD
:100B38000106D8A00206012803E10228D8B48B9642
:100B48000306D8A00406032803E10428D8B48C902F
:100B58000506D8A00606052803E10628D8B48C9215
:100B68000B4A0C2A0CBEE4D70C5001E1DBD712006B
:100B7800020E07180810D8A431D08B8E8B8C8B8A64
:100B88008B988C968C94000E0E6E000E0D6E0EBE19
:100B980006D00E5055E18C0E0D5CD8B0120001063F
:100BA800D8A00206012803E10228D8B48B9E0306C8
:100BB800D8A00406032803E10428D8B48B9C0506B2
:100BC800D8A00606052803E10628D8B48B9A0D4A52
:100BD8000E2A0EBEE4D70E5033E1DDD7030E0718F8
:100BE8000810D8A412008B9E8B9C8B9A8B888C86BD
:100BF8008C84000E106E000E0F6E10BE06D01050C2
:100C08001FE18C0E0F5CD8B012000106D8A00206B6
:100C1800012803E10228D8B48B980306D8A004065B
:100C2800032803E10428D8B48C960506D8A0060644
:100C3800052803E10628D8B48C940F4A102ADDD77A
:100C48001200040E0D180E10D8A451D08B808B8280
:100C58008B848B968C908C928B8E8B8C8B8A8B98BA
:100C68008C968C94000E106E000E0F6E10BE08D07D
:100C7800105005E18C0E0F5CD8B0120001D01200A4
:100C88000106D8A00206012803E10228D8B48B90F7
:100C98000306D8A00406032803E10428D8B48B92DD
:100CA8000506D8A00606052803E10628D8B48B94C3
:100CB8000706D8A00806072803E10828D8B48B9EA1
:100CC8000906D8A00A06092803E10A28D8B48B9C8B
:100CD8000B06D8A00C060B2803E10C28D8B48B9A75
:100CE8000F4A102A10BECCD7105051E1C3D7050EB9
:100CF8000D180E10D8A412008B908B928B948B86B3
:100D08008C808C828B9E8B9C8B9A8B888C868C8417
:100D1800000E126E000E116E12BE06D0125037E190
:100D28008C0E115CD8B012000106D8A0020601286A
:100D380003E10228D8B48B960306D8A0040603283A
:100D480003E10428D8B48C900506D8A00606052827
:100D580003E10628D8B48C920706D8A0080607280D
:100D680003E10828D8B48B980906D8A00A060928F0
:100D780003E10A28D8B48C960B06D8A00C060B28D9
:100D880003E10C28D8B48C94114A122AC5D7120052
:100D98000600FACF23F0FBCF24F0E9CF25F0EACF05
:100DA80026F0E1CF27F0E2CF28F0D9CF29F0DACF2B
:100DB8002AF0F3CF2BF0F4CF2CF0F6CF2DF0F7CFAD
:100DC8002EF0F8CF2FF0F5CF30F04AC031F04BC0FD
:100DD80032F04CC033F04DC034F0F2A206D08C98FB
:100DE80009EC00F081908A90F29234C04DF033C043
:100DF8004CF032C04BF031C04AF030C0F5FF2FC084
:100E0800F8FF2EC0F7FF2DC0F6FF2CC0F4FF2BC053
:100E1800F3FF2AC0DAFF29C0D9FF28C0E2FF27C0A4
:100E2800E1FF26C0EAFF25C0E9FF24C0FBFF23C07D
:100E3800FAFF4A921100000E226E3C0E216E20BE6F
:100E480019D020503EE1040E1F5CD8A013D039D031
:100E580013C001F014C002F015C003F016C004F06E
:100E680017C005F018C006F01FC007F020C008F032
:100E78004CEC05F02106D8A022062128E9E1222819
:100E8800D8B41200E5D713C001F014C002F015C0A1
:100E980003F016C004F017C005F018C006F019C01A
:100EA80007F01AC008F01BC009F01CC00AF01DC0EA
:100EB8000BF01EC00CF01FC00DF020C00EF025EC8A
:100EC80006F02106D8A022062128DDE12228D8B480
:100ED8001200D9D7D38CD38AD398000E946E000E03
:100EE800956E000E8B6E000E8C6E9380000E496E10
:100EF800000E486E000E476E000E466E000E456EE0
:100F0800000E446E000E436E000E426E000E416EDF
:100F1800000E406E000E3F6E000E3E6ED08EF28EBA
:100F2800F292F288F18C8A9081909398938A8A9AA7
:100F3800000E3D6E000E3C6E12006EEC07F0EFECFA
:100F480007F0000E0001816F0A0E806F000E836F9C
:100F5800826911D0000E836F826903D08207D8A0FE
:100F6800830783BF05D08351F9E18205D8B0F6D74E
:100F78008007D8A0810781BF05D08151EBE18005AA
:100F8800D8B0E8D781AADBD7F282D9D78B908B92D9
:100F98008B948B968C908C928B9E8B9C8B9A8B9837
:100FA8008C968C94000E496E000E486E000E476EAB
:100FB800000E466E000E456E000E446E000E436E27
:100FC800000E426E000E416E000E406E000E3F6E27
:100FD800000E3E6E120008D03C4A3D2A3CC035F057
:100FE8003DC036F00CEC08F0C80E3C183D10D8B4E3
:100FF8000AD0F2D73C06D8A03D063CC035F03DC02B
:1010080036F00CEC08F03C503D10D8B41200F2D782
:101018008C88000E386E000E376E38BE06D03850F9
:101028000FE1C80E375CD8B012003506D8A03606D6
:10103800352803E13628D8B48C98374A382AEDD7B2
:10104800120000EE39F0110EEE6AE806FDE14A9052
:081058004A920001A1EF07F02C
:020000040020DA
:08000000FFFFFFFFFFFFFFFF00
:020000040030CA
:0E000000FF081B1EFF8181FF0FC00FE00F40A5
:00000001FF
